:100000000C942A000C9447000C9447000C94470071
:100010000C9447000C9447000C9447000C94470044
:100020000C9447000C9447000C9447000C94470034
:100030000C9447000C9447000C9447000C94470024
:100040000C9447000C9447000C9447000C94470014
:100050000C94470011241FBECFE5D4E0DEBFCDBF16
:1000600010E0A0E6B0E0E6E7F4E002C005900D92F3
:10007000A438B107D9F710E0A4E8B0E001C01D92A0
:10008000A339B107E1F70E94D3000C9439020C9414
:1000900000008AB188698AB986E880BD8CE089B998
:1000A00008955D9BFECF8CB984EC99E00197F1F740
:1000B000089520E060E177E244EC59E00AC0DB01FA
:1000C0001197F1F75D9BFECFECB9FA013197F1F78B
:1000D0002F5FFC01E20FF11DE081EE2381F708950F
:1000E00088BB80E88BBB88E893E1FC013197F1F78E
:1000F0001BBA0197F1F7089588BB80EA8BBB28E80B
:1001000033E1C9010197F1F780E28BBBC901019787
:10011000F1F7089588E388BB30E83BBB88E893E1BA
:10012000FC013197F1F71BBAFC013197F1F7FC01A3
:100130003197F1F721E028BB3BBBFC013197F1F788
:100140001BBAFC013197F1F7FC013197F1F72CE074
:1001500028BB3BBBFC013197F1F71BBAFC0131977F
:10016000F1F7FC013197F1F738BB3BBBFC0131974C
:10017000F1F71BBAFC013197F1F70197F1F70895F8
:10018000FC0150EA28E833E140E209C088BB5BBBD0
:10019000C9010197F1F74BBBC9010197F1F78191B3
:1001A0008823A1F708958F929F92AF92BF92CF922A
:1001B000DF92EF92FF920F931F93CF93DF9380EF25
:1001C0008ABB8FEF87BB14BA81BB979A88E18AB943
:1001D00086E880BD8CE089B980E29EE422E330E0CD
:1001E000F9013197F1F70197D9F788E388BB30E837
:1001F0003BBB88E893E1FC013197F1F71BBAFC01A6
:100200003197F1F7FC013197F1F721E028BB3BBBB7
:10021000FC013197F1F71BBAFC013197F1F7FC01B2
:100220003197F1F72CE028BB3BBBFC013197F1F78C
:100230001BBAFC013197F1F7FC013197F1F738BB9C
:100240003BBBFC013197F1F71BBAFC013197F1F789
:100250000197F1F780E690E00E94C00080E29EE402
:1002600022E330E0F9013197F1F70197D9F788E3FC
:1002700088BB30E83BBB88E893E1FC013197F1F79C
:100280001BBAFC013197F1F7FC013197F1F721E03E
:1002900028BB3BBBFC013197F1F71BBAFC0131973E
:1002A000F1F7FC013197F1F72CE028BB3BBBFC01D7
:1002B0003197F1F71BBAFC013197F1F7FC01319747
:1002C000F1F738BB3BBBFC013197F1F71BBAFC01DE
:1002D0003197F1F70197F1F752E3C52ED12C04ECD9
:1002E00019E0C8E8D3E140EA842E30E2932E28E3F7
:1002F000A22E90E8F92EBB24B3948CE0E82E979AB6
:100300005F9BFECF2CB1422F50E080E197E2F601D7
:100310003197F1F70197D9F79798C8010197F1F74D
:10032000979AC8010197F1F79798C8010197F1F7DB
:10033000979AC8010197F1F79798C8010197F1F7CB
:10034000979AC8010197F1F79798C8010197F1F7BB
:10035000979AC8010197F1F75D9BFECF2CB9C801B0
:100360000197F1F7CE010197F1F728BB8BBACE01C7
:100370000197F1F79BBACE010197F1F780E197E27F
:10038000F6013197F1F70197D9F74332510509F09A
:10039000B6CF50938B0040938A00A8BAFBBACE0127
:1003A0000197F1F71BBACE010197F1F7CE01019742
:1003B000F1F7B8BAFBBACE010197F1F71BBACE013B
:1003C0000197F1F7CE010197F1F7E8BAFBBACE0138
:1003D0000197F1F71BBACE010197F1F7CE01019712
:1003E000F1F7F8BAFBBACE010197F1F71BBACE01CB
:1003F0000197F1F7CE010197F1F781E790E00E94B4
:10040000C00080E29EE4F6013197F1F70197D9F739
:10041000A8BAFBBACE010197F1F71BBACE0101973A
:10042000F1F7CE010197F1F7B8BAFBBACE01019707
:10043000F1F71BBACE010197F1F7CE010197F1F761
:10044000E8BAFBBACE010197F1F71BBACE010197CA
:10045000F1F7CE010197F1F7F8BAFBBACE01019797
:10046000F1F71BBACE010197F1F7CE010197F1F731
:0604700046CFF894FFCF17
:100476004C694669205472616E736D697474657255
:1004860000456E746572204E6577206D65737361E5
:040496006765000096
:00000001FF
