:100000000C942A000C9447000C9447000C94470071
:100010000C9447000C9447000C9447000C94470044
:100020000C9447000C9447000C9447000C94470034
:100030000C9447000C9447000C9447000C94470024
:100040000C9447000C9447000C9447000C94470014
:100050000C94470011241FBECFE5D4E0DEBFCDBF16
:1000600010E0A0E6B0E0E6EFF4E002C005900D92EB
:10007000A239B107D9F710E0A2E9B0E001C01D92A2
:10008000A13AB107E1F70E94D3000C9479020C94D5
:1000900000008AB188698AB986E880BD8CE089B998
:1000A00008955D9BFECF8CB984EC99E00197F1F740
:1000B000089520E060E177E244EC59E00AC0DB01FA
:1000C0001197F1F75D9BFECFECB9FA013197F1F78B
:1000D0002F5FFC01E20FF11DE081EE2381F708950F
:1000E00088BB80E88BBB88E893E1FC013197F1F78E
:1000F0001BBA0197F1F7089588BB80EA8BBB28E80B
:1001000033E1C9010197F1F780E28BBBC901019787
:10011000F1F7089588E388BB30E83BBB88E893E1BA
:10012000FC013197F1F71BBAFC013197F1F7FC01A3
:100130003197F1F721E028BB3BBBFC013197F1F788
:100140001BBAFC013197F1F7FC013197F1F72CE074
:1001500028BB3BBBFC013197F1F71BBAFC0131977F
:10016000F1F7FC013197F1F738BB3BBBFC0131974C
:10017000F1F71BBAFC013197F1F70197F1F70895F8
:10018000FC0150EA28E833E140E209C088BB5BBBD0
:10019000C9010197F1F74BBBC9010197F1F78191B3
:1001A0008823A1F70895AF92BF92CF92DF92EF928A
:1001B000FF920F931F93CF93DF9380EF8ABB8FEF54
:1001C00087BB14BA81BB88E18AB986E880BD4CE060
:1001D00049B988E388BB30E83BBB88E893E1FC0180
:1001E0003197F1F71BBAFC013197F1F7FC01319718
:1001F000F1F721E028BB3BBBFC013197F1F71BBABB
:10020000FC013197F1F7FC013197F1F748BB3BBB9B
:10021000FC013197F1F71BBAFC013197F1F7FC01B2
:100220003197F1F738BB3BBBFC013197F1F71BBAB3
:10023000FC013197F1F70197F1F780E690E00E9419
:10024000C00080E29EE422E330E0F9013197F1F74B
:100250000197D9F788E388BB30E83BBB88E893E196
:10026000FC013197F1F71BBAFC013197F1F7FC0162
:100270003197F1F721E028BB3BBBFC013197F1F747
:100280001BBAFC013197F1F7FC013197F1F72CE033
:1002900028BB3BBBFC013197F1F71BBAFC0131973E
:1002A000F1F7FC013197F1F738BB3BBBFC0131970B
:1002B000F1F71BBAFC013197F1F70197F1F738E339
:1002C000C32E10E8C8E8D3E1DD24D3940CE022E388
:1002D000E22EF12C90EAB92E80E2A82E6DC0C899CA
:1002E0006BC0C8BA1BBBCE010197F1F71BBACE0198
:1002F0000197F1F7CE010197F1F7D8BA1BBBCE01F8
:100300000197F1F71BBACE010197F1F7CE010197E2
:10031000F1F708BB1BBBCE010197F1F71BBACE0169
:100320000197F1F7CE010197F1F718BB1BBBCE0186
:100330000197F1F71BBACE010197F1F7CE010197B2
:10034000F1F78EE690E00E94C00080E197E2F701AD
:100350003197F1F70197D9F7C8BA1BBBCE010197C6
:10036000F1F71BBACE010197F1F7CE010197F1F732
:10037000D8BA1BBBCE010197F1F71BBACE0101978A
:10038000F1F7CE010197F1F708BB1BBBCE01019736
:10039000F1F71BBACE010197F1F7CE010197F1F702
:1003A00018BB1BBBCE010197F1F71BBACE01019719
:1003B000F1F7CE010197F1F75F9B91CF2CB1422F5E
:1003C00050E05093990040939800C89B56C080E13C
:1003D00097E2F7013197F1F70197D9F728BBBBBA3C
:1003E000CE010197F1F7ABBACE010197F1F780E1A9
:1003F00097E2F7013197F1F70197D9F743325105A9
:10040000D9F6C8BA1BBBCE010197F1F71BBACE01D2
:100410000197F1F7CE010197F1F7D8BA1BBBCE01D6
:100420000197F1F71BBACE010197F1F7CE010197C1
:10043000F1F708BB1BBBCE010197F1F71BBACE0148
:100440000197F1F7CE010197F1F718BB1BBBCE0165
:100450000197F1F71BBACE010197F1F7CE01019791
:10046000F1F78FE790E00E94C00080E29EE4F70180
:100470003197F1F70197D9F76FCFC8BA1BBBCE01FF
:100480000197F1F71BBACE010197F1F7CE01019761
:10049000F1F7D8BA1BBBCE010197F1F71BBACE0119
:1004A0000197F1F7CE010197F1F708BB1BBBCE0115
:1004B0000197F1F71BBACE010197F1F7CE01019731
:1004C000F1F718BB1BBBCE010197F1F71BBACE01A8
:1004D0000197F1F7CE010197F1F78EE690E00E94C7
:1004E000C00080E197E2F7013197F1F70197D9F762
:0604F00033CFF894FFCFAA
:1004F6004C69466920526563656976657200416C90
:1005060069676E205472616E736D69746572004519
:100516006E746572204E6577206D657373616765CD
:020526000000D3
:00000001FF
